{
  "contractName": "Decentragram",
  "abi": [
    {
      "anonymous": false,
      "inputs": [
        {
          "indexed": false,
          "internalType": "uint256",
          "name": "commentId",
          "type": "uint256"
        },
        {
          "indexed": false,
          "internalType": "address",
          "name": "author",
          "type": "address"
        }
      ],
      "name": "CommentAdded",
      "type": "event"
    },
    {
      "anonymous": false,
      "inputs": [
        {
          "indexed": false,
          "internalType": "uint256",
          "name": "id",
          "type": "uint256"
        },
        {
          "indexed": false,
          "internalType": "string",
          "name": "hash",
          "type": "string"
        },
        {
          "indexed": false,
          "internalType": "string",
          "name": "description",
          "type": "string"
        },
        {
          "indexed": false,
          "internalType": "uint256",
          "name": "tipAmount",
          "type": "uint256"
        },
        {
          "indexed": false,
          "internalType": "address payable",
          "name": "author",
          "type": "address"
        }
      ],
      "name": "ImageCreated",
      "type": "event"
    },
    {
      "anonymous": false,
      "inputs": [
        {
          "indexed": false,
          "internalType": "uint256",
          "name": "id",
          "type": "uint256"
        },
        {
          "indexed": false,
          "internalType": "string",
          "name": "hash",
          "type": "string"
        },
        {
          "indexed": false,
          "internalType": "string",
          "name": "description",
          "type": "string"
        },
        {
          "indexed": false,
          "internalType": "uint256",
          "name": "tipAmount",
          "type": "uint256"
        },
        {
          "indexed": false,
          "internalType": "address payable",
          "name": "author",
          "type": "address"
        }
      ],
      "name": "ImageTipped",
      "type": "event"
    },
    {
      "inputs": [
        {
          "internalType": "uint256",
          "name": "",
          "type": "uint256"
        }
      ],
      "name": "commentFromAccount",
      "outputs": [
        {
          "internalType": "address",
          "name": "",
          "type": "address"
        }
      ],
      "stateMutability": "view",
      "type": "function"
    },
    {
      "inputs": [
        {
          "internalType": "uint256",
          "name": "",
          "type": "uint256"
        }
      ],
      "name": "comments",
      "outputs": [
        {
          "internalType": "string",
          "name": "comment",
          "type": "string"
        }
      ],
      "stateMutability": "view",
      "type": "function"
    },
    {
      "inputs": [
        {
          "internalType": "uint256",
          "name": "",
          "type": "uint256"
        },
        {
          "internalType": "uint256",
          "name": "",
          "type": "uint256"
        }
      ],
      "name": "commentsFromPost",
      "outputs": [
        {
          "internalType": "uint256",
          "name": "",
          "type": "uint256"
        }
      ],
      "stateMutability": "view",
      "type": "function"
    },
    {
      "inputs": [],
      "name": "imageCount",
      "outputs": [
        {
          "internalType": "uint256",
          "name": "",
          "type": "uint256"
        }
      ],
      "stateMutability": "view",
      "type": "function"
    },
    {
      "inputs": [
        {
          "internalType": "uint256",
          "name": "",
          "type": "uint256"
        }
      ],
      "name": "images",
      "outputs": [
        {
          "internalType": "uint256",
          "name": "id",
          "type": "uint256"
        },
        {
          "internalType": "string",
          "name": "hash",
          "type": "string"
        },
        {
          "internalType": "string",
          "name": "description",
          "type": "string"
        },
        {
          "internalType": "uint256",
          "name": "tipAmount",
          "type": "uint256"
        },
        {
          "internalType": "address payable",
          "name": "author",
          "type": "address"
        }
      ],
      "stateMutability": "view",
      "type": "function"
    },
    {
      "inputs": [],
      "name": "name",
      "outputs": [
        {
          "internalType": "string",
          "name": "",
          "type": "string"
        }
      ],
      "stateMutability": "view",
      "type": "function"
    },
    {
      "inputs": [
        {
          "internalType": "string",
          "name": "_imgHash",
          "type": "string"
        },
        {
          "internalType": "string",
          "name": "_description",
          "type": "string"
        }
      ],
      "name": "uploadImage",
      "outputs": [],
      "stateMutability": "nonpayable",
      "type": "function"
    },
    {
      "inputs": [
        {
          "internalType": "uint256",
          "name": "_id",
          "type": "uint256"
        }
      ],
      "name": "tipImageOwner",
      "outputs": [],
      "stateMutability": "payable",
      "type": "function"
    },
    {
      "inputs": [
        {
          "internalType": "string",
          "name": "_comment",
          "type": "string"
        }
      ],
      "name": "newComment",
      "outputs": [],
      "stateMutability": "nonpayable",
      "type": "function"
    }
  ],
  "bytecode": "0x60806040526040518060400160405280600c81526020017f446563656e7472616772616d000000000000000000000000000000000000000081525060009080519060200190620000519291906200006b565b5060006001553480156200006457600080fd5b5062000180565b82805462000079906200011b565b90600052602060002090601f0160209004810192826200009d5760008555620000e9565b82601f10620000b857805160ff1916838001178555620000e9565b82800160010185558215620000e9579182015b82811115620000e8578251825591602001919060010190620000cb565b5b509050620000f89190620000fc565b5090565b5b8082111562000117576000816000905550600101620000fd565b5090565b600060028204905060018216806200013457607f821691505b602082108114156200014b576200014a62000151565b5b50919050565b7f4e487b7100000000000000000000000000000000000000000000000000000000600052602260045260246000fd5b61125a80620001906000396000f3fe6080604052600436106100865760003560e01c80638ebb4c15116100595780638ebb4c151461015057806392053b631461018d5780639639647e146101b8578063a91b8314146101e1578063cd65eabe1461020a57610086565b806306fdde031461008b57806310fdf92a146100b657806384856482146100f35780638567ade814610134575b600080fd5b34801561009757600080fd5b506100a0610247565b6040516100ad9190610e23565b60405180910390f35b3480156100c257600080fd5b506100dd60048036038101906100d89190610d2e565b6102d5565b6040516100ea9190610e08565b60405180910390f35b3480156100ff57600080fd5b5061011a60048036038101906101159190610d2e565b610308565b60405161012b959493929190610eea565b60405180910390f35b61014e60048036038101906101499190610d2e565b61046e565b005b34801561015c57600080fd5b5061017760048036038101906101729190610d2e565b6107d7565b6040516101849190610e23565b60405180910390f35b34801561019957600080fd5b506101a2610889565b6040516101af9190610e45565b60405180910390f35b3480156101c457600080fd5b506101df60048036038101906101da9190610c81565b61088f565b005b3480156101ed57600080fd5b5061020860048036038101906102039190610cc2565b61098f565b005b34801561021657600080fd5b50610231600480360381019061022c9190610d57565b610b30565b60405161023e9190610e45565b60405180910390f35b60008054610254906110f4565b80601f0160208091040260200160405190810160405280929190818152602001828054610280906110f4565b80156102cd5780601f106102a2576101008083540402835291602001916102cd565b820191906000526020600020905b8154815290600101906020018083116102b057829003601f168201915b505050505081565b60056020528060005260406000206000915054906101000a900473ffffffffffffffffffffffffffffffffffffffff1681565b6003602052806000526040600020600091509050806000015490806001018054610331906110f4565b80601f016020809104026020016040519081016040528092919081815260200182805461035d906110f4565b80156103aa5780601f1061037f576101008083540402835291602001916103aa565b820191906000526020600020905b81548152906001019060200180831161038d57829003601f168201915b5050505050908060020180546103bf906110f4565b80601f01602080910402602001604051908101604052809291908181526020018280546103eb906110f4565b80156104385780601f1061040d57610100808354040283529160200191610438565b820191906000526020600020905b81548152906001019060200180831161041b57829003601f168201915b5050505050908060030154908060040160009054906101000a900473ffffffffffffffffffffffffffffffffffffffff16905085565b60008111801561048057506001548111155b61048957600080fd5b6000600360008381526020019081526020016000206040518060a0016040529081600082015481526020016001820180546104c3906110f4565b80601f01602080910402602001604051908101604052809291908181526020018280546104ef906110f4565b801561053c5780601f106105115761010080835404028352916020019161053c565b820191906000526020600020905b81548152906001019060200180831161051f57829003601f168201915b50505050508152602001600282018054610555906110f4565b80601f0160208091040260200160405190810160405280929190818152602001828054610581906110f4565b80156105ce5780601f106105a3576101008083540402835291602001916105ce565b820191906000526020600020905b8154815290600101906020018083116105b157829003601f168201915b50505050508152602001600382015481526020016004820160009054906101000a900473ffffffffffffffffffffffffffffffffffffffff1673ffffffffffffffffffffffffffffffffffffffff1673ffffffffffffffffffffffffffffffffffffffff168152505090506000816080015190508073ffffffffffffffffffffffffffffffffffffffff163373ffffffffffffffffffffffffffffffffffffffff16141561067b57600080fd5b8073ffffffffffffffffffffffffffffffffffffffff166108fc349081150290604051600060405180830381858888f193505050501580156106c1573d6000803e3d6000fd5b503482606001516106d29190610fc8565b8260600181815250508160036000858152602001908152602001600020600082015181600001556020820151816001019080519060200190610715929190610b61565b506040820151816002019080519060200190610732929190610b61565b506060820151816003015560808201518160040160006101000a81548173ffffffffffffffffffffffffffffffffffffffff021916908373ffffffffffffffffffffffffffffffffffffffff1602179055509050507f1be5317bca8d3f70dc1efe89958be71bff36cdca33fc00a6423e25eb2f1d492f83836020015184604001518560600151856040516107ca959493929190610eea565b60405180910390a1505050565b600281815481106107e757600080fd5b90600052602060002001600091509050806000018054610806906110f4565b80601f0160208091040260200160405190810160405280929190818152602001828054610832906110f4565b801561087f5780601f106108545761010080835404028352916020019161087f565b820191906000526020600020905b81548152906001019060200180831161086257829003601f168201915b5050505050905081565b60015481565b600060405180602001604052808381525090506002819080600181540180825580915050600190039060005260206000200160009091909190915060008201518160000190805190602001906108e6929190610b61565b505050600060016002805490506108fd919061101e565b9050336005600083815260200190815260200160002060006101000a81548173ffffffffffffffffffffffffffffffffffffffff021916908373ffffffffffffffffffffffffffffffffffffffff1602179055507f1ae003d984a091dd98a7026587cd616a3d83f6a3059c28db1b36c6ea79a730f58133604051610982929190610e60565b60405180910390a1505050565b600082511161099d57600080fd5b60008151116109ab57600080fd5b600073ffffffffffffffffffffffffffffffffffffffff163373ffffffffffffffffffffffffffffffffffffffff1614156109e557600080fd5b600160008154809291906109f890611126565b91905055506040518060a001604052806001548152602001838152602001828152602001600081526020013373ffffffffffffffffffffffffffffffffffffffff16815250600360006001548152602001908152602001600020600082015181600001556020820151816001019080519060200190610a78929190610b61565b506040820151816002019080519060200190610a95929190610b61565b506060820151816003015560808201518160040160006101000a81548173ffffffffffffffffffffffffffffffffffffffff021916908373ffffffffffffffffffffffffffffffffffffffff1602179055509050507fc1d8dfa99b3f84f95d3f0bc4a768addeb97b83b20aef7f9cb6729e126bafd2f96001548383600033604051610b24959493929190610e89565b60405180910390a15050565b60046020528160005260406000208181548110610b4c57600080fd5b90600052602060002001600091509150505481565b828054610b6d906110f4565b90600052602060002090601f016020900481019282610b8f5760008555610bd6565b82601f10610ba857805160ff1916838001178555610bd6565b82800160010185558215610bd6579182015b82811115610bd5578251825591602001919060010190610bba565b5b509050610be39190610be7565b5090565b5b80821115610c00576000816000905550600101610be8565b5090565b6000610c17610c1284610f7c565b610f4b565b905082815260208101848484011115610c2f57600080fd5b610c3a8482856110b2565b509392505050565b600082601f830112610c5357600080fd5b8135610c63848260208601610c04565b91505092915050565b600081359050610c7b8161120d565b92915050565b600060208284031215610c9357600080fd5b600082013567ffffffffffffffff811115610cad57600080fd5b610cb984828501610c42565b91505092915050565b60008060408385031215610cd557600080fd5b600083013567ffffffffffffffff811115610cef57600080fd5b610cfb85828601610c42565b925050602083013567ffffffffffffffff811115610d1857600080fd5b610d2485828601610c42565b9150509250929050565b600060208284031215610d4057600080fd5b6000610d4e84828501610c6c565b91505092915050565b60008060408385031215610d6a57600080fd5b6000610d7885828601610c6c565b9250506020610d8985828601610c6c565b9150509250929050565b610d9c81611064565b82525050565b610dab81611052565b82525050565b610dba816110a0565b82525050565b6000610dcb82610fac565b610dd58185610fb7565b9350610de58185602086016110c1565b610dee816111fc565b840191505092915050565b610e0281611096565b82525050565b6000602082019050610e1d6000830184610da2565b92915050565b60006020820190508181036000830152610e3d8184610dc0565b905092915050565b6000602082019050610e5a6000830184610df9565b92915050565b6000604082019050610e756000830185610df9565b610e826020830184610da2565b9392505050565b600060a082019050610e9e6000830188610df9565b8181036020830152610eb08187610dc0565b90508181036040830152610ec48186610dc0565b9050610ed36060830185610db1565b610ee06080830184610d93565b9695505050505050565b600060a082019050610eff6000830188610df9565b8181036020830152610f118187610dc0565b90508181036040830152610f258186610dc0565b9050610f346060830185610df9565b610f416080830184610d93565b9695505050505050565b6000604051905081810181811067ffffffffffffffff82111715610f7257610f716111cd565b5b8060405250919050565b600067ffffffffffffffff821115610f9757610f966111cd565b5b601f19601f8301169050602081019050919050565b600081519050919050565b600082825260208201905092915050565b6000610fd382611096565b9150610fde83611096565b9250827fffffffffffffffffffffffffffffffffffffffffffffffffffffffffffffffff038211156110135761101261116f565b5b828201905092915050565b600061102982611096565b915061103483611096565b9250828210156110475761104661116f565b5b828203905092915050565b600061105d82611076565b9050919050565b600061106f82611076565b9050919050565b600073ffffffffffffffffffffffffffffffffffffffff82169050919050565b6000819050919050565b60006110ab82611096565b9050919050565b82818337600083830152505050565b60005b838110156110df5780820151818401526020810190506110c4565b838111156110ee576000848401525b50505050565b6000600282049050600182168061110c57607f821691505b602082108114156111205761111f61119e565b5b50919050565b600061113182611096565b91507fffffffffffffffffffffffffffffffffffffffffffffffffffffffffffffffff8214156111645761116361116f565b5b600182019050919050565b7f4e487b7100000000000000000000000000000000000000000000000000000000600052601160045260246000fd5b7f4e487b7100000000000000000000000000000000000000000000000000000000600052602260045260246000fd5b7f4e487b7100000000000000000000000000000000000000000000000000000000600052604160045260246000fd5b6000601f19601f8301169050919050565b61121681611096565b811461122157600080fd5b5056fea26469706673582212203d550be7affb056a8c017a26b32982d24fa8a81ea27ce405a49d5fdf6bd89b9864736f6c63430008000033",
  "immutableReferences": {},
  "source": "pragma solidity >=0.6.0 <0.9.0;\r\n\r\ncontract Decentragram {\r\n  // Code goes here...\r\n  string public name= \"Decentragram\";\r\n  //Store Images\r\n  uint public imageCount = 0;\r\n  Comment[] public comments;\r\n  mapping(uint => Image) public images;\r\n  mapping (uint => uint[]) public commentsFromPost;\r\n  mapping (uint => address) public commentFromAccount;\r\n  struct Image{\r\n    uint id;\r\n    string hash;\r\n    string description;\r\n    uint tipAmount;\r\n    address payable author;\r\n  }\r\n  struct Comment {\r\n      string comment;\r\n    }\r\n  event ImageCreated(\r\n    uint id,\r\n    string hash,\r\n    string description,\r\n    uint tipAmount,\r\n    address payable author\r\n);\r\n  event CommentAdded(\r\n    uint commentId,\r\n    address author\r\n  );\r\n  event ImageTipped(\r\n    uint id,\r\n    string hash,\r\n    string description,\r\n    uint tipAmount,\r\n    address payable author\r\n);\r\n\r\n  //Create Images\r\n  function uploadImage(string memory _imgHash, string memory _description) public {\r\n    //Image exists\r\n    require(bytes(_imgHash).length > 0);\r\n    //Image description exists\r\n    require(bytes(_description).length > 0);\r\n    //Uploader address exists\r\n    require(msg.sender != address(0x0));\r\n    //Increment image id\r\n    imageCount++;\r\n    // Add image to contract\r\n    images[imageCount] = Image(imageCount,_imgHash, _description, 0, payable(msg.sender));\r\n\r\n    emit ImageCreated(imageCount, _imgHash, _description, 0, payable(msg.sender));\r\n    \r\n\r\n   }\r\n  //Tip Images\r\n  function tipImageOwner(uint _id) public payable {\r\n    require(_id > 0 && _id <= imageCount);\r\n    \r\n    Image memory _image = images[_id];\r\n\r\n    address _author = _image.author;\r\n    require(msg.sender != _author);\r\n    payable(address(_author)).transfer(msg.value);\r\n    _image.tipAmount = _image.tipAmount + msg.value;\r\n    images[_id] = _image; \r\n    emit ImageTipped(_id, _image.hash, _image.description, _image.tipAmount, payable(_author)); \r\n  }\r\n  //Comments\r\n   function newComment(string memory _comment) public {\r\n        Comment memory comment = Comment(_comment);\r\n        comments.push(comment);\r\n        uint commentId = comments.length - 1;\r\n\r\n        commentFromAccount[commentId] = msg.sender;\r\n        emit CommentAdded(commentId,msg.sender);\r\n    }\r\n}",
  "sourcePath": "D:\\College\\Projects\\3Decent\\3Decent\\decentragram\\src\\contracts\\Decentragram.sol",
  "compiler": {
    "name": "solc",
    "version": "0.8.0+commit.c7dfd78e.Emscripten.clang"
  },
  "schemaVersion": "3.4.6",
  "updatedAt": "2022-04-24T06:20:22.141Z",
  "devdoc": {
    "kind": "dev",
    "methods": {},
    "version": 1
  },
  "userdoc": {
    "kind": "user",
    "methods": {},
    "version": 1
  }
}